:0600000000F0B1EF0FF06B
:101F2400222111140C0A140A000E896E9268000E04
:101F34008A6E000E936E120001500302F3CF05F077
:101F4400F4CF06F001500402F350062602500302B7
:101F5400F350062605C001F006C002F01200146A10
:101F6400136A126A240EF66E1F0EF76E000EF86ED8
:101F740000EE0AF010EE08F00900F5CFEEFFE55090
:101F8400E150FAE10001E0EF0FF010C001F0026A45
:101F940007C003F008C004F09EEC0FF001C012F07B
:101FA40002C013F006D0500EE82EFED71206D8A0B9
:101FB400130612501310D8B41200F5D796EC0FF094
:101FC4000A0E116E000E096E050E096401D011D0BF
:101FD4000950010D0A0EF324D96E000EF420DA6EB6
:101FE400DF50816E11C007F0086AC7EC0FF0092AB0
:0C1FF400EBD7030E146E1106142AE4D77C
:020000040020DA
:08000000FFFFFFFFFFFFFFFF00
:020000040030CA
:0E000000FFC20F1EFF8081FF03C003E003401C
:00000001FF
